{
  "contractName": "DeedIPFSToken",
  "abi": [
    {
      "inputs": [],
      "payable": false,
      "stateMutability": "nonpayable",
      "type": "constructor"
    },
    {
      "anonymous": false,
      "inputs": [
        {
          "indexed": true,
          "internalType": "address",
          "name": "_owner",
          "type": "address"
        },
        {
          "indexed": true,
          "internalType": "address",
          "name": "_approved",
          "type": "address"
        },
        {
          "indexed": true,
          "internalType": "uint256",
          "name": "_tokenId",
          "type": "uint256"
        }
      ],
      "name": "Approval",
      "type": "event"
    },
    {
      "anonymous": false,
      "inputs": [
        {
          "indexed": true,
          "internalType": "address",
          "name": "_owner",
          "type": "address"
        },
        {
          "indexed": true,
          "internalType": "address",
          "name": "_operator",
          "type": "address"
        },
        {
          "indexed": false,
          "internalType": "bool",
          "name": "_approved",
          "type": "bool"
        }
      ],
      "name": "ApprovalForAll",
      "type": "event"
    },
    {
      "anonymous": false,
      "inputs": [
        {
          "indexed": true,
          "internalType": "address",
          "name": "_from",
          "type": "address"
        },
        {
          "indexed": true,
          "internalType": "address",
          "name": "_to",
          "type": "address"
        },
        {
          "indexed": true,
          "internalType": "uint256",
          "name": "_tokenId",
          "type": "uint256"
        }
      ],
      "name": "Transfer",
      "type": "event"
    },
    {
      "constant": true,
      "inputs": [
        {
          "internalType": "uint256",
          "name": "",
          "type": "uint256"
        }
      ],
      "name": "allTokens",
      "outputs": [
        {
          "internalType": "string",
          "name": "ipfsHash",
          "type": "string"
        }
      ],
      "payable": false,
      "stateMutability": "view",
      "type": "function"
    },
    {
      "constant": true,
      "inputs": [
        {
          "internalType": "uint256",
          "name": "",
          "type": "uint256"
        }
      ],
      "name": "allValidTokenIds",
      "outputs": [
        {
          "internalType": "uint256",
          "name": "",
          "type": "uint256"
        }
      ],
      "payable": false,
      "stateMutability": "view",
      "type": "function"
    },
    {
      "constant": true,
      "inputs": [],
      "name": "owner",
      "outputs": [
        {
          "internalType": "address payable",
          "name": "",
          "type": "address"
        }
      ],
      "payable": false,
      "stateMutability": "view",
      "type": "function"
    },
    {
      "constant": true,
      "inputs": [
        {
          "internalType": "bytes4",
          "name": "interfaceID",
          "type": "bytes4"
        }
      ],
      "name": "supportsInterface",
      "outputs": [
        {
          "internalType": "bool",
          "name": "",
          "type": "bool"
        }
      ],
      "payable": false,
      "stateMutability": "view",
      "type": "function"
    },
    {
      "constant": true,
      "inputs": [
        {
          "internalType": "address",
          "name": "_owner",
          "type": "address"
        }
      ],
      "name": "balanceOf",
      "outputs": [
        {
          "internalType": "uint256",
          "name": "",
          "type": "uint256"
        }
      ],
      "payable": false,
      "stateMutability": "view",
      "type": "function"
    },
    {
      "constant": true,
      "inputs": [
        {
          "internalType": "uint256",
          "name": "_tokenId",
          "type": "uint256"
        }
      ],
      "name": "ownerOf",
      "outputs": [
        {
          "internalType": "address",
          "name": "",
          "type": "address"
        }
      ],
      "payable": false,
      "stateMutability": "view",
      "type": "function"
    },
    {
      "constant": false,
      "inputs": [
        {
          "internalType": "address",
          "name": "_approved",
          "type": "address"
        },
        {
          "internalType": "uint256",
          "name": "_tokenId",
          "type": "uint256"
        }
      ],
      "name": "approve",
      "outputs": [],
      "payable": true,
      "stateMutability": "payable",
      "type": "function"
    },
    {
      "constant": false,
      "inputs": [
        {
          "internalType": "address",
          "name": "_operator",
          "type": "address"
        },
        {
          "internalType": "bool",
          "name": "_approved",
          "type": "bool"
        }
      ],
      "name": "setApprovalForAll",
      "outputs": [],
      "payable": false,
      "stateMutability": "nonpayable",
      "type": "function"
    },
    {
      "constant": true,
      "inputs": [
        {
          "internalType": "uint256",
          "name": "_tokenId",
          "type": "uint256"
        }
      ],
      "name": "getApproved",
      "outputs": [
        {
          "internalType": "address",
          "name": "",
          "type": "address"
        }
      ],
      "payable": false,
      "stateMutability": "view",
      "type": "function"
    },
    {
      "constant": true,
      "inputs": [
        {
          "internalType": "address",
          "name": "_owner",
          "type": "address"
        },
        {
          "internalType": "address",
          "name": "_operator",
          "type": "address"
        }
      ],
      "name": "isApprovedForAll",
      "outputs": [
        {
          "internalType": "bool",
          "name": "",
          "type": "bool"
        }
      ],
      "payable": false,
      "stateMutability": "view",
      "type": "function"
    },
    {
      "constant": true,
      "inputs": [
        {
          "internalType": "uint256",
          "name": "_number",
          "type": "uint256"
        }
      ],
      "name": "getAllNFTs",
      "outputs": [
        {
          "internalType": "uint256",
          "name": "",
          "type": "uint256"
        },
        {
          "internalType": "string",
          "name": "",
          "type": "string"
        },
        {
          "internalType": "address",
          "name": "",
          "type": "address"
        }
      ],
      "payable": false,
      "stateMutability": "view",
      "type": "function"
    },
    {
      "constant": true,
      "inputs": [],
      "name": "getLength",
      "outputs": [
        {
          "internalType": "uint256",
          "name": "",
          "type": "uint256"
        }
      ],
      "payable": false,
      "stateMutability": "view",
      "type": "function"
    },
    {
      "constant": false,
      "inputs": [
        {
          "internalType": "string",
          "name": "ipfsHash",
          "type": "string"
        }
      ],
      "name": "mint",
      "outputs": [],
      "payable": false,
      "stateMutability": "nonpayable",
      "type": "function"
    },
    {
      "constant": false,
      "inputs": [
        {
          "internalType": "address payable",
          "name": "_from",
          "type": "address"
        },
        {
          "internalType": "address",
          "name": "_to",
          "type": "address"
        },
        {
          "internalType": "uint256",
          "name": "_tokenId",
          "type": "uint256"
        }
      ],
      "name": "transferFrom",
      "outputs": [],
      "payable": true,
      "stateMutability": "payable",
      "type": "function"
    },
    {
      "constant": false,
      "inputs": [
        {
          "internalType": "uint256",
          "name": "_tokenId",
          "type": "uint256"
        }
      ],
      "name": "burn",
      "outputs": [],
      "payable": false,
      "stateMutability": "nonpayable",
      "type": "function"
    },
    {
      "constant": true,
      "inputs": [],
      "name": "baseTokenURI",
      "outputs": [
        {
          "internalType": "string",
          "name": "",
          "type": "string"
        }
      ],
      "payable": false,
      "stateMutability": "pure",
      "type": "function"
    },
    {
      "constant": true,
      "inputs": [],
      "name": "totalSupply",
      "outputs": [
        {
          "internalType": "uint256",
          "name": "",
          "type": "uint256"
        }
      ],
      "payable": false,
      "stateMutability": "view",
      "type": "function"
    },
    {
      "constant": true,
      "inputs": [
        {
          "internalType": "uint256",
          "name": "index",
          "type": "uint256"
        }
      ],
      "name": "tokenByIndex",
      "outputs": [
        {
          "internalType": "uint256",
          "name": "",
          "type": "uint256"
        }
      ],
      "payable": false,
      "stateMutability": "view",
      "type": "function"
    },
    {
      "constant": true,
      "inputs": [],
      "name": "name",
      "outputs": [
        {
          "internalType": "string",
          "name": "",
          "type": "string"
        }
      ],
      "payable": false,
      "stateMutability": "pure",
      "type": "function"
    },
    {
      "constant": true,
      "inputs": [],
      "name": "symbol",
      "outputs": [
        {
          "internalType": "string",
          "name": "",
          "type": "string"
        }
      ],
      "payable": false,
      "stateMutability": "pure",
      "type": "function"
    },
    {
      "constant": true,
      "inputs": [
        {
          "internalType": "uint256",
          "name": "_tokenId",
          "type": "uint256"
        }
      ],
      "name": "tokenURI",
      "outputs": [
        {
          "internalType": "string",
          "name": "",
          "type": "string"
        }
      ],
      "payable": false,
      "stateMutability": "view",
      "type": "function"
    },
    {
      "constant": false,
      "inputs": [],
      "name": "kill",
      "outputs": [],
      "payable": false,
      "stateMutability": "nonpayable",
      "type": "function"
    }
  ],
  "bytecode": "0x6080604052336000806101000a81548173ffffffffffffffffffffffffffffffffffffffff021916908373ffffffffffffffffffffffffffffffffffffffff16021790555034801561005057600080fd5b50336000806101000a81548173ffffffffffffffffffffffffffffffffffffffff021916908373ffffffffffffffffffffffffffffffffffffffff16021790555060018060006301ffc9a760e01b7bffffffffffffffffffffffffffffffffffffffffffffffffffffffff1916815260200190815260200160002060006101000a81548160ff02191690831515021790555060018060006380ac58cd60e01b7bffffffffffffffffffffffffffffffffffffffffffffffffffffffff1916815260200190815260200160002060006101000a81548160ff0219169083151502179055506001806000635b5e139f60e01b7bffffffffffffffffffffffffffffffffffffffffffffffffffffffff1916815260200190815260200160002060006101000a81548160ff021916908315150217905550612476806101936000396000f3fe6080604052600436106101355760003560e01c8063700319c5116100ab578063be1c766b1161006f578063be1c766b14610766578063c87b56dd14610791578063d36c8c3d14610845578063d547cfb714610933578063d85d3d27146109c3578063e985e9c514610a4957610135565b8063700319c51461056e57806370a08231146105bd5780638da5cb5b1461062257806395d89b4114610679578063a22cb4651461070957610135565b806323b872dd116100fd57806323b872dd1461033057806341c0e1b51461039e57806342966c68146103b55780634f6ccce7146103f0578063634282af1461043f5780636352211e146104f357610135565b806301ffc9a71461013a57806306fdde03146101ac578063081812fc1461023c578063095ea7b3146102b757806318160ddd14610305575b600080fd5b34801561014657600080fd5b506101926004803603602081101561015d57600080fd5b8101908080357bffffffffffffffffffffffffffffffffffffffffffffffffffffffff19169060200190929190505050610ad2565b604051808215151515815260200191505060405180910390f35b3480156101b857600080fd5b506101c1610b3a565b6040518080602001828103825283818151815260200191508051906020019080838360005b838110156102015780820151818401526020810190506101e6565b50505050905090810190601f16801561022e5780820380516001836020036101000a031916815260200191505b509250505060405180910390f35b34801561024857600080fd5b506102756004803603602081101561025f57600080fd5b8101908080359060200190929190505050610b77565b604051808273ffffffffffffffffffffffffffffffffffffffff1673ffffffffffffffffffffffffffffffffffffffff16815260200191505060405180910390f35b610303600480360360408110156102cd57600080fd5b81019080803573ffffffffffffffffffffffffffffffffffffffff16906020019092919080359060200190929190505050610bb4565b005b34801561031157600080fd5b5061031a610dab565b6040518082815260200191505060405180910390f35b61039c6004803603606081101561034657600080fd5b81019080803573ffffffffffffffffffffffffffffffffffffffff169060200190929190803573ffffffffffffffffffffffffffffffffffffffff16906020019092919080359060200190929190505050610db8565b005b3480156103aa57600080fd5b506103b3610fdd565b005b3480156103c157600080fd5b506103ee600480360360208110156103d857600080fd5b81019080803590602001909291905050506110bc565b005b3480156103fc57600080fd5b506104296004803603602081101561041357600080fd5b810190808035906020019092919050505061138d565b6040518082815260200191505060405180910390f35b34801561044b57600080fd5b506104786004803603602081101561046257600080fd5b81019080803590602001909291905050506113c1565b6040518080602001828103825283818151815260200191508051906020019080838360005b838110156104b857808201518184015260208101905061049d565b50505050905090810190601f1680156104e55780820380516001836020036101000a031916815260200191505b509250505060405180910390f35b3480156104ff57600080fd5b5061052c6004803603602081101561051657600080fd5b8101908080359060200190929190505050611480565b604051808273ffffffffffffffffffffffffffffffffffffffff1673ffffffffffffffffffffffffffffffffffffffff16815260200191505060405180910390f35b34801561057a57600080fd5b506105a76004803603602081101561059157600080fd5b8101908080359060200190929190505050611565565b6040518082815260200191505060405180910390f35b3480156105c957600080fd5b5061060c600480360360208110156105e057600080fd5b81019080803573ffffffffffffffffffffffffffffffffffffffff169060200190929190505050611586565b6040518082815260200191505060405180910390f35b34801561062e57600080fd5b50610637611608565b604051808273ffffffffffffffffffffffffffffffffffffffff1673ffffffffffffffffffffffffffffffffffffffff16815260200191505060405180910390f35b34801561068557600080fd5b5061068e61162d565b6040518080602001828103825283818151815260200191508051906020019080838360005b838110156106ce5780820151818401526020810190506106b3565b50505050905090810190601f1680156106fb5780820380516001836020036101000a031916815260200191505b509250505060405180910390f35b34801561071557600080fd5b506107646004803603604081101561072c57600080fd5b81019080803573ffffffffffffffffffffffffffffffffffffffff16906020019092919080351515906020019092919050505061166a565b005b34801561077257600080fd5b5061077b61176b565b6040518082815260200191505060405180910390f35b34801561079d57600080fd5b506107ca600480360360208110156107b457600080fd5b8101908080359060200190929190505050611778565b6040518080602001828103825283818151815260200191508051906020019080838360005b8381101561080a5780820151818401526020810190506107ef565b50505050905090810190601f1680156108375780820380516001836020036101000a031916815260200191505b509250505060405180910390f35b34801561085157600080fd5b5061087e6004803603602081101561086857600080fd5b81019080803590602001909291905050506118bd565b60405180848152602001806020018373ffffffffffffffffffffffffffffffffffffffff1673ffffffffffffffffffffffffffffffffffffffff168152602001828103825284818151815260200191508051906020019080838360005b838110156108f65780820151818401526020810190506108db565b50505050905090810190601f1680156109235780820380516001836020036101000a031916815260200191505b5094505050505060405180910390f35b34801561093f57600080fd5b506109486119e8565b6040518080602001828103825283818151815260200191508051906020019080838360005b8381101561098857808201518184015260208101905061096d565b50505050905090810190601f1680156109b55780820380516001836020036101000a031916815260200191505b509250505060405180910390f35b3480156109cf57600080fd5b50610a47600480360360208110156109e657600080fd5b8101908080359060200190640100000000811115610a0357600080fd5b820183602082011115610a1557600080fd5b80359060200191846001830284011164010000000083111715610a3757600080fd5b9091929391929390505050611a25565b005b348015610a5557600080fd5b50610ab860048036036040811015610a6c57600080fd5b81019080803573ffffffffffffffffffffffffffffffffffffffff169060200190929190803573ffffffffffffffffffffffffffffffffffffffff169060200190929190505050611dab565b604051808215151515815260200191505060405180910390f35b600060016000837bffffffffffffffffffffffffffffffffffffffffffffffffffffffff19167bffffffffffffffffffffffffffffffffffffffffffffffffffffffff1916815260200190815260200160002060009054906101000a900460ff169050919050565b60606040518060400160405280600981526020017f55314c20544f4b454e0000000000000000000000000000000000000000000000815250905090565b60006004600083815260200190815260200160002060009054906101000a900473ffffffffffffffffffffffffffffffffffffffff169050919050565b6000610bbf82611480565b90506000600560008373ffffffffffffffffffffffffffffffffffffffff1673ffffffffffffffffffffffffffffffffffffffff16815260200190815260200160002060003373ffffffffffffffffffffffffffffffffffffffff1673ffffffffffffffffffffffffffffffffffffffff16815260200190815260200160002060009054906101000a900460ff1690503373ffffffffffffffffffffffffffffffffffffffff168273ffffffffffffffffffffffffffffffffffffffff161480610c865750805b610cf8576040517f08c379a00000000000000000000000000000000000000000000000000000000081526004018080602001828103825260158152602001807f4e6f7420617070726f766564206279206f776e6572000000000000000000000081525060200191505060405180910390fd5b836004600085815260200190815260200160002060006101000a81548173ffffffffffffffffffffffffffffffffffffffff021916908373ffffffffffffffffffffffffffffffffffffffff160217905550828473ffffffffffffffffffffffffffffffffffffffff168373ffffffffffffffffffffffffffffffffffffffff167f8c5be1e5ebec7d5bd14f71427d1e84f3dd0314c0f7b2291e5b200ac8c7c3b92560405160405180910390a450505050565b6000600a80549050905090565b816002600083815260200190815260200160002060006101000a81548173ffffffffffffffffffffffffffffffffffffffff021916908373ffffffffffffffffffffffffffffffffffffffff160217905550610e5d6001600360008673ffffffffffffffffffffffffffffffffffffffff1673ffffffffffffffffffffffffffffffffffffffff16815260200190815260200160002054611e3f90919063ffffffff16565b600360008573ffffffffffffffffffffffffffffffffffffffff1673ffffffffffffffffffffffffffffffffffffffff16815260200190815260200160002081905550610ef36001600360008573ffffffffffffffffffffffffffffffffffffffff1673ffffffffffffffffffffffffffffffffffffffff16815260200190815260200160002054611e5f90919063ffffffff16565b600360008473ffffffffffffffffffffffffffffffffffffffff1673ffffffffffffffffffffffffffffffffffffffff168152602001908152602001600020819055508273ffffffffffffffffffffffffffffffffffffffff166108fc349081150290604051600060405180830381858888f19350505050158015610f7c573d6000803e3d6000fd5b50808273ffffffffffffffffffffffffffffffffffffffff168473ffffffffffffffffffffffffffffffffffffffff167fddf252ad1be2c89b69c2b068fc378daa952ba7f163c4a11628f55a4df523b3ef60405160405180910390a4505050565b6000809054906101000a900473ffffffffffffffffffffffffffffffffffffffff1673ffffffffffffffffffffffffffffffffffffffff163373ffffffffffffffffffffffffffffffffffffffff1614611082576040517f08c379a00000000000000000000000000000000000000000000000000000000081526004018080602001828103825260228152602001806124206022913960400191505060405180910390fd5b6000809054906101000a900473ffffffffffffffffffffffffffffffffffffffff1673ffffffffffffffffffffffffffffffffffffffff16ff5b60008090505b6008805490508110156112445781600882815481106110dd57fe5b9060005260206000209060030201600001541415611237576001600880549050141561111e5760088054809190600190036111189190612188565b50611236565b6008805490506001820114156111495760088054809190600190036111439190612188565b50611235565b6008600182018154811061115957fe5b90600052602060002090600302016008828154811061117457fe5b906000526020600020906003020160008201548160000155600182018160010190805460018160011615610100020316600290046111b39291906121ba565b506002820160009054906101000a900473ffffffffffffffffffffffffffffffffffffffff168160020160006101000a81548173ffffffffffffffffffffffffffffffffffffffff021916908373ffffffffffffffffffffffffffffffffffffffff16021790555090505060088054809190600190036112339190612188565b505b5b5b80806001019150506110c2565b5060006002600083815260200190815260200160002060006101000a81548173ffffffffffffffffffffffffffffffffffffffff021916908373ffffffffffffffffffffffffffffffffffffffff1602179055506112eb6001600360003373ffffffffffffffffffffffffffffffffffffffff1673ffffffffffffffffffffffffffffffffffffffff16815260200190815260200160002054611e3f90919063ffffffff16565b600360003373ffffffffffffffffffffffffffffffffffffffff1673ffffffffffffffffffffffffffffffffffffffff1681526020019081526020016000208190555080600073ffffffffffffffffffffffffffffffffffffffff163373ffffffffffffffffffffffffffffffffffffffff167fddf252ad1be2c89b69c2b068fc378daa952ba7f163c4a11628f55a4df523b3ef60405160405180910390a450565b6000611397610dab565b82106113a257600080fd5b600a82815481106113af57fe5b90600052602060002001549050919050565b600981815481106113ce57fe5b90600052602060002001600091509050806000018054600181600116156101000203166002900480601f0160208091040260200160405190810160405280929190818152602001828054600181600116156101000203166002900480156114765780601f1061144b57610100808354040283529160200191611476565b820191906000526020600020905b81548152906001019060200180831161145957829003601f168201915b5050505050905081565b6000806002600084815260200190815260200160002060009054906101000a900473ffffffffffffffffffffffffffffffffffffffff169050600073ffffffffffffffffffffffffffffffffffffffff168173ffffffffffffffffffffffffffffffffffffffff16141561155c576040517f08c379a00000000000000000000000000000000000000000000000000000000081526004018080602001828103825260108152602001807f546f6b656e20697320696e76616c69640000000000000000000000000000000081525060200191505060405180910390fd5b80915050919050565b600a818154811061157257fe5b906000526020600020016000915090505481565b60008073ffffffffffffffffffffffffffffffffffffffff168273ffffffffffffffffffffffffffffffffffffffff1614156115c157600080fd5b600360008373ffffffffffffffffffffffffffffffffffffffff1673ffffffffffffffffffffffffffffffffffffffff168152602001908152602001600020549050919050565b6000809054906101000a900473ffffffffffffffffffffffffffffffffffffffff1681565b60606040518060400160405280600381526020017f55314c0000000000000000000000000000000000000000000000000000000000815250905090565b80600560003373ffffffffffffffffffffffffffffffffffffffff1673ffffffffffffffffffffffffffffffffffffffff16815260200190815260200160002060008473ffffffffffffffffffffffffffffffffffffffff1673ffffffffffffffffffffffffffffffffffffffff16815260200190815260200160002060006101000a81548160ff0219169083151502179055508173ffffffffffffffffffffffffffffffffffffffff163373ffffffffffffffffffffffffffffffffffffffff167f17307eab39ab6107e8899845ad3d59bd9653f200f220920489ca2b5937696c3183604051808215151515815260200191505060405180910390a35050565b6000600880549050905090565b606081611797600b60008581526020019081526020016000205461138d565b1461180a576040517f08c379a00000000000000000000000000000000000000000000000000000000081526004018080602001828103825260148152602001807f54686520746f6b656e20697320696e76616c696400000000000000000000000081525060200191505060405180910390fd5b600760008381526020019081526020016000208054600181600116156101000203166002900480601f0160208091040260200160405190810160405280929190818152602001828054600181600116156101000203166002900480156118b15780601f10611886576101008083540402835291602001916118b1565b820191906000526020600020905b81548152906001019060200180831161189457829003601f168201915b50505050509050919050565b600060606000600884815481106118d057fe5b906000526020600020906003020160000154600885815481106118ef57fe5b90600052602060002090600302016001016008868154811061190d57fe5b906000526020600020906003020160020160009054906101000a900473ffffffffffffffffffffffffffffffffffffffff16818054600181600116156101000203166002900480601f0160208091040260200160405190810160405280929190818152602001828054600181600116156101000203166002900480156119d45780601f106119a9576101008083540402835291602001916119d4565b820191906000526020600020905b8154815290600101906020018083116119b757829003601f168201915b505050505091509250925092509193909250565b60606040518060400160405280601d81526020017f68747470733a2f2f676174657761792e697066732e696f2f697066732f000000815250905090565b611a2d612241565b604051806020016040528084848080601f016020809104026020016040519081016040528093929190818152602001838380828437600081840152601f19601f820116905080830192505050505050508152509050600060016009839080600181540180825580915050906001820390600052602060002001600090919290919091506000820151816000019080519060200190611acc929190612254565b505050039050336002600083815260200190815260200160002060006101000a81548173ffffffffffffffffffffffffffffffffffffffff021916908373ffffffffffffffffffffffffffffffffffffffff160217905550611b776001600360003373ffffffffffffffffffffffffffffffffffffffff1673ffffffffffffffffffffffffffffffffffffffff16815260200190815260200160002054611e5f90919063ffffffff16565b600360003373ffffffffffffffffffffffffffffffffffffffff1673ffffffffffffffffffffffffffffffffffffffff168152602001908152602001600020819055506008604051806060016040528083815260200186868080601f016020809104026020016040519081016040528093929190818152602001838380828437600081840152601f19601f8201169050808301925050505050505081526020013373ffffffffffffffffffffffffffffffffffffffff1681525090806001815401808255809150509060018203906000526020600020906003020160009091929091909150600082015181600001556020820151816001019080519060200190611c82929190612254565b5060408201518160020160006101000a81548173ffffffffffffffffffffffffffffffffffffffff021916908373ffffffffffffffffffffffffffffffffffffffff160217905550505050611d22611cd86119e8565b85858080601f016020809104026020016040519081016040528093929190818152602001838380828437600081840152601f19601f82011690508083019250505050505050611e7e565b600760008381526020019081526020016000209080519060200190611d489291906122d4565b50803373ffffffffffffffffffffffffffffffffffffffff16600073ffffffffffffffffffffffffffffffffffffffff167fddf252ad1be2c89b69c2b068fc378daa952ba7f163c4a11628f55a4df523b3ef60405160405180910390a450505050565b6000600560008473ffffffffffffffffffffffffffffffffffffffff1673ffffffffffffffffffffffffffffffffffffffff16815260200190815260200160002060008373ffffffffffffffffffffffffffffffffffffffff1673ffffffffffffffffffffffffffffffffffffffff16815260200190815260200160002060009054906101000a900460ff16905092915050565b600082821115611e4e57600080fd5b600082840390508091505092915050565b600080828401905083811015611e7457600080fd5b8091505092915050565b6060611eba8383604051806020016040528060008152506040518060200160405280600081525060405180602001604052806000815250611ec2565b905092915050565b6060808690506060869050606086905060608690506060869050606081518351855187518951010101016040519080825280601f01601f191660200182016040528015611f1e5781602001600182028038833980820191505090505b5090506060819050600080905060008090505b8851811015611f9f57888181518110611f4657fe5b602001015160f81c60f81b838380600101945081518110611f6357fe5b60200101907effffffffffffffffffffffffffffffffffffffffffffffffffffffffffffff1916908160001a9053508080600101915050611f31565b5060008090505b875181101561201457878181518110611fbb57fe5b602001015160f81c60f81b838380600101945081518110611fd857fe5b60200101907effffffffffffffffffffffffffffffffffffffffffffffffffffffffffffff1916908160001a9053508080600101915050611fa6565b5060008090505b86518110156120895786818151811061203057fe5b602001015160f81c60f81b83838060010194508151811061204d57fe5b60200101907effffffffffffffffffffffffffffffffffffffffffffffffffffffffffffff1916908160001a905350808060010191505061201b565b5060008090505b85518110156120fe578581815181106120a557fe5b602001015160f81c60f81b8383806001019450815181106120c257fe5b60200101907effffffffffffffffffffffffffffffffffffffffffffffffffffffffffffff1916908160001a9053508080600101915050612090565b5060008090505b84518110156121735784818151811061211a57fe5b602001015160f81c60f81b83838060010194508151811061213757fe5b60200101907effffffffffffffffffffffffffffffffffffffffffffffffffffffffffffff1916908160001a9053508080600101915050612105565b50819850505050505050505095945050505050565b8154818355818111156121b5576003028160030283600052602060002091820191016121b49190612354565b5b505050565b828054600181600116156101000203166002900490600052602060002090601f016020900481019282601f106121f35780548555612230565b8280016001018555821561223057600052602060002091601f016020900482015b8281111561222f578254825591600101919060010190612214565b5b50905061223d91906123b2565b5090565b6040518060200160405280606081525090565b828054600181600116156101000203166002900490600052602060002090601f016020900481019282601f1061229557805160ff19168380011785556122c3565b828001600101855582156122c3579182015b828111156122c25782518255916020019190600101906122a7565b5b5090506122d091906123b2565b5090565b828054600181600116156101000203166002900490600052602060002090601f016020900481019282601f1061231557805160ff1916838001178555612343565b82800160010185558215612343579182015b82811115612342578251825591602001919060010190612327565b5b50905061235091906123b2565b5090565b6123af91905b808211156123ab5760008082016000905560018201600061237b91906123d7565b6002820160006101000a81549073ffffffffffffffffffffffffffffffffffffffff02191690555060030161235a565b5090565b90565b6123d491905b808211156123d05760008160009055506001016123b8565b5090565b90565b50805460018160011615610100020316600290046000825580601f106123fd575061241c565b601f01602090049060005260206000209081019061241b91906123b2565b5b5056fe4f6e6c79206f776e65722063616e2063616c6c20746869732066756e6374696f6e2ea265627a7a72315820807be6f31645b3a15839b5c8fe501d44a6aee85e2689318a553c43334ddc751964736f6c63430005100032",
  "source": "pragma solidity ^0.5.0;\r\n\r\nimport \"./ERC721.sol\";\r\nimport \"./ERC165.sol\";\r\nimport \"./SafeMath.sol\";\r\nimport \"./Address.sol\";\r\nimport \"./Strings.sol\";\r\n\r\ncontract DeedIPFSToken is ERC721, ERC165 {\r\n    using SafeMath for uint256;\r\n    using Address for address;\r\n\r\n    address payable public owner = msg.sender;\r\n    mapping(bytes4 => bool) supportedInterfaces;\r\n    mapping(uint256 => address) tokenOwners;\r\n    mapping(address => uint256) balances;\r\n    mapping(uint256 => address) allowance;\r\n    mapping(address => mapping(address => bool)) operators;\r\n    mapping(uint256 => address) allbidcalls;\r\n\r\n    // NFT   . \r\n    mapping(uint256 => string) tokenURIs;\r\n\r\n    struct asset {\r\n        string ipfsHash;\r\n    }\r\n     //struct \r\n    struct allNFT{\r\n        uint256 tokenId; // \r\n        string ipfsHash; //    \r\n        address tokenOwner; //    \r\n    }\r\n\r\n    //struct =>  \r\n    allNFT[] allNFTs;\r\n    asset[] public allTokens;//   \r\n\r\n\r\n    //for enumeration\r\n    uint256[] public allValidTokenIds; //same as allTokens but does't have invalid tokens\r\n    mapping(uint256 => uint256) private allValidTokenIndex;\r\n\r\n    modifier onlyOwner() {\r\n        require(msg.sender == owner, \"Only owner can call this function.\");\r\n        _;\r\n    }\r\n\r\n    constructor() public {\r\n        owner = msg.sender;\r\n        supportedInterfaces[0x01ffc9a7] = true; //ERC165\r\n        supportedInterfaces[0x80ac58cd] = true; //ERC721\r\n        supportedInterfaces[0x5b5e139f] = true; //ERC721Metadata\r\n    }\r\n\r\n    function supportsInterface(bytes4 interfaceID)\r\n        external\r\n        view\r\n        returns (bool)\r\n    {\r\n        return supportedInterfaces[interfaceID];\r\n    }\r\n\r\n    function balanceOf(address _owner) external view returns (uint256) {\r\n        require(_owner != address(0));\r\n        return balances[_owner];\r\n    }\r\n\r\n    function ownerOf(uint256 _tokenId) public view returns (address) {\r\n        address addr_owner = tokenOwners[_tokenId];\r\n        require(addr_owner != address(0), \"Token is invalid\");\r\n        return addr_owner;\r\n    }\r\n\r\n        /////////////////////////////////////////////////////////////\r\n     function removeInvalidToken(uint256 tokenIdToRemove) private {\r\n        uint256 lastIndex = allValidTokenIds.length.sub(1);\r\n        uint256 removeIndex = allValidTokenIndex[tokenIdToRemove];\r\n\r\n        uint256 lastTokenId = allValidTokenIds[lastIndex];\r\n        //swap\r\n        allValidTokenIds[removeIndex] = lastTokenId;\r\n        allValidTokenIndex[lastTokenId] = removeIndex;\r\n        //delete\r\n        //Arrays have a length member to hold their number of elements.\r\n        //Dynamic arrays can be resized in storage (not in memory) by changing the .length member.\r\n        allValidTokenIds.length = allValidTokenIds.length.sub(1);\r\n        //allValidTokenIndex is private so can't access invalid token by index programmatically\r\n        allValidTokenIndex[tokenIdToRemove] = 0;\r\n    }\r\n\r\n\r\n    //  function safeTransferFrom(\r\n    //     address _from,\r\n    //     address  _to,\r\n    //     uint256 _tokenId,\r\n    //     bytes memory data\r\n    // ) public payable {\r\n    //     transferFrom(_from, _to, _tokenId);\r\n    //     //check if _to is CA\r\n    //     if (_to.isContract()) {\r\n    //         bytes4 result = ERC721TokenReceiver(_to).onERC721Received(\r\n    //             msg.sender,\r\n    //             _from,\r\n    //             _tokenId,\r\n    //             data\r\n    //         );\r\n\r\n    //         require(\r\n    //             result ==\r\n    //                 bytes4(\r\n    //                     keccak256(\r\n    //                         \"onERC721Received(address,address,uint256,bytes)\"\r\n    //                     )\r\n    //                 ),\r\n    //             \"receipt of token is NOT completed\"\r\n    //         );\r\n    //     }\r\n    // }\r\n\r\n    // function safeTransferFrom(\r\n    //     address _from,\r\n    //     address _to,\r\n    //     uint256 _tokenId\r\n    // ) public payable {\r\n    //     safeTransferFrom(_from, _to, _tokenId, \"\");\r\n    // }\r\n\r\n\r\n    //////////////////////////////////////////////////////////////////\r\n\r\n    //  . \r\n    // function bidArray () {\r\n        \r\n    // }\r\n\r\n    //     .\r\n    // function transferAuction (address _from, address _to, uint256 _tokenId) public payable {\r\n    //     if(block.timestamp <= start + daysAfter * 1days){\r\n\r\n    //     }\r\n    // }\r\n    /////////////////////////////////////////\r\n\r\n   \r\n\r\n    function approve(address _approved, uint256 _tokenId) external payable {\r\n        address addr_owner = ownerOf(_tokenId);\r\n        bool isOp = operators[addr_owner][msg.sender];\r\n        require(addr_owner == msg.sender || isOp, \"Not approved by owner\");\r\n        allowance[_tokenId] = _approved;\r\n        emit Approval(addr_owner, _approved, _tokenId);\r\n    }\r\n\r\n     \r\n\r\n\r\n    function setApprovalForAll(address _operator, bool _approved) external {\r\n        operators[msg.sender][_operator] = _approved;\r\n        emit ApprovalForAll(msg.sender, _operator, _approved);\r\n    }\r\n\r\n    function getApproved(uint256 _tokenId) external view returns (address) {\r\n        return allowance[_tokenId];\r\n    }\r\n\r\n    function isApprovedForAll(address _owner, address _operator)\r\n        external\r\n        view\r\n        returns (bool)\r\n    {\r\n        return operators[_owner][_operator];\r\n    }\r\n\r\n       \r\n\r\n    // NFT     \r\n    function getAllNFTs(uint _number) public view returns (uint256, string memory, address){\r\n        return (allNFTs[_number].tokenId, allNFTs[_number].ipfsHash, allNFTs[_number].tokenOwner);\r\n    }\r\n\r\n    //NFT \r\n    function getLength() public view returns (uint256) {\r\n        return allNFTs.length;\r\n    }\r\n\r\n    // \r\n    function mint(string calldata ipfsHash) external {\r\n        asset memory newAsset = asset(ipfsHash);\r\n        uint256 tokenId = allTokens.push(newAsset) - 1;\r\n        tokenOwners[tokenId] = msg.sender;\r\n        balances[msg.sender] = balances[msg.sender].add(1);\r\n        allNFTs.push(allNFT(tokenId, ipfsHash, msg.sender ));\r\n        tokenURIs[tokenId] = Strings.strConcat(baseTokenURI(), ipfsHash);\r\n        emit Transfer(address(0), msg.sender, tokenId);\r\n    }\r\n\r\n    // function auction(){\r\n    //     if(block.timestamp>=1630401003){\r\n    //         return \"success\";\r\n    //     }\r\n    // }\r\n\r\n \r\n\r\n  \r\n\r\n     //////////////////////////////////////////////////////////////////\r\n    function transferFrom( address payable  _from, address   _to, uint256 _tokenId ) public payable {\r\n        tokenOwners[_tokenId] = _to;\r\n        balances[_from] = balances[_from].sub(1);\r\n        balances[_to] = balances[_to].add(1);\r\n        _from.transfer(msg.value);\r\n        emit Transfer(_from, _to, _tokenId);\r\n    }\r\n    \r\n\r\n    /// NFT   ////////////////\r\n    function burn(uint256 _tokenId) external {\r\n        for(uint i=0;i<allNFTs.length;i++){\r\n            if(allNFTs[i].tokenId ==_tokenId){\r\n                if(allNFTs.length==1){\r\n                    allNFTs.length--;\r\n                }\r\n                else if((i+1)==allNFTs.length){\r\n                    allNFTs.length--;\r\n                }\r\n                else{\r\n                    allNFTs[i]=allNFTs[i+1];\r\n                allNFTs.length--;\r\n                }\r\n            }\r\n        }\r\n        tokenOwners[_tokenId] = address(0);\r\n        balances[msg.sender] = balances[msg.sender].sub(1);\r\n        emit Transfer(msg.sender, address(0), _tokenId);\r\n    }\r\n    /////////////////////////////////////////////////////////////\r\n\r\n\r\n\r\n    function baseTokenURI() public pure returns (string memory) {\r\n        return \"https://gateway.ipfs.io/ipfs/\";\r\n    }\r\n\r\n    //ERC721Enumerable\r\n    function totalSupply() public view returns (uint256) {\r\n        return allValidTokenIds.length;\r\n    }\r\n\r\n    //ERC721Enumerable\r\n    function tokenByIndex(uint256 index) public view returns (uint256) {\r\n        require(index < totalSupply());\r\n        return allValidTokenIds[index];\r\n    }\r\n\r\n    //ERC721Metadata\r\n    function name() external pure returns (string memory) {\r\n        return \"U1L TOKEN\";\r\n    }\r\n\r\n    //ERC721Metadata\r\n    function symbol() external pure returns (string memory) {\r\n        return \"U1L\";\r\n    }\r\n\r\n    //ERC721Metadata\r\n    function tokenURI(uint256 _tokenId) external view returns (string memory) {\r\n        require(\r\n            tokenByIndex(allValidTokenIndex[_tokenId]) == _tokenId,\r\n            \"The token is invalid\"\r\n        );\r\n        return tokenURIs[_tokenId];\r\n    }\r\n\r\n    function kill() external onlyOwner {\r\n        selfdestruct(owner);\r\n    }\r\n}\r\n\r\ncontract ERC721TokenReceiver {\r\n    function onERC721Received(\r\n        address _operator,\r\n        address _from,\r\n        uint256 _tokenId,\r\n        bytes memory _data\r\n    ) public returns (bytes4);\r\n}",
  "sourcePath": "/home/jinwood/work/U1l/contracts/DeedIPFSToken.sol",
  "compiler": {
    "name": "solc",
    "version": "0.5.16+commit.9c3226ce.Emscripten.clang"
  },
  "schemaVersion": "3.4.2",
  "updatedAt": "2021-09-05T01:42:04.589Z",
  "networkType": "ethereum",
  "devdoc": {
    "methods": {}
  },
  "userdoc": {
    "methods": {
      "approve(address,uint256)": {
        "notice": "//////////////////////////////////////"
      },
      "baseTokenURI()": {
        "notice": "//////////////////////////////////////////////////////////"
      },
      "burn(uint256)": {
        "notice": " NFT   ////////////////"
      },
      "transferFrom(address,address,uint256)": {
        "notice": "///////////////////////////////////////////////////////////////"
      }
    }
  }
}