{
  "contractName": "Fruitshop",
  "abi": [
    {
      "inputs": [],
      "payable": false,
      "stateMutability": "nonpayable",
      "type": "constructor"
    },
    {
      "constant": false,
      "inputs": [],
      "name": "buyApple",
      "outputs": [],
      "payable": true,
      "stateMutability": "payable",
      "type": "function"
    },
    {
      "constant": true,
      "inputs": [],
      "name": "getMyApples",
      "outputs": [
        {
          "internalType": "uint256",
          "name": "",
          "type": "uint256"
        }
      ],
      "payable": false,
      "stateMutability": "view",
      "type": "function"
    },
    {
      "constant": false,
      "inputs": [
        {
          "internalType": "uint256",
          "name": "_applePrice",
          "type": "uint256"
        }
      ],
      "name": "sellMyApple",
      "outputs": [],
      "payable": true,
      "stateMutability": "payable",
      "type": "function"
    }
  ],
  "bytecode": "0x608060405234801561001057600080fd5b5061023b806100206000396000f3fe6080604052600436106100345760003560e01c80630bd5849314610039578063284131c71461006757806395ff3cc114610071575b600080fd5b6100656004803603602081101561004f57600080fd5b810190808035906020019092919050505061009c565b005b61006f610170565b005b34801561007d57600080fd5b506100866101c0565b6040518082815260200191505060405180910390f35b6000816000803373ffffffffffffffffffffffffffffffffffffffff1673ffffffffffffffffffffffffffffffffffffffff1681526020019081526020016000205402905060008060003373ffffffffffffffffffffffffffffffffffffffff1673ffffffffffffffffffffffffffffffffffffffff168152602001908152602001600020819055503373ffffffffffffffffffffffffffffffffffffffff166108fc829081150290604051600060405180830381858888f1935050505015801561016b573d6000803e3d6000fd5b505050565b6000803373ffffffffffffffffffffffffffffffffffffffff1673ffffffffffffffffffffffffffffffffffffffff16815260200190815260200160002060008154809291906001019190505550565b60008060003373ffffffffffffffffffffffffffffffffffffffff1673ffffffffffffffffffffffffffffffffffffffff1681526020019081526020016000205490509056fea265627a7a723158209d813e0718358c8e23f4bf479ffbed313111ff05599bec9329c95c54c7998cea64736f6c63430005100032",
  "source": "// SPDX-License-Identifier: MIT\npragma solidity >=0.4.21 <0.7.0;\n\ncontract Fruitshop {\n\n  mapping(address => uint)myApple;\n\n  constructor() public {\n  }\n\n  function buyApple() payable external  {\n    myApple[msg.sender]++;\n  }\n\n  function getMyApples() view external returns (uint) {\n    return myApple[msg.sender];\n  }\n\n  function sellMyApple(uint _applePrice) payable external {\n    uint refund = (myApple[msg.sender] * _applePrice);\n    myApple[msg.sender] = 0 ;\n    msg.sender.transfer(refund);\n  }\n}\n",
  "sourcePath": "/home/parkhyunwoo/fruitshop/contracts/Fruitshop.sol",
  "compiler": {
    "name": "solc",
    "version": "0.5.16+commit.9c3226ce.Emscripten.clang"
  },
  "schemaVersion": "3.4.1",
  "updatedAt": "2021-08-25T01:20:00.419Z",
  "networkType": "ethereum",
  "devdoc": {
    "methods": {}
  },
  "userdoc": {
    "methods": {}
  }
}